{
  "contractName": "Casino",
  "abi": [
    {
      "constant": true,
      "inputs": [],
      "name": "numberOfBets",
      "outputs": [
        {
          "name": "",
          "type": "uint256"
        }
      ],
      "payable": false,
      "stateMutability": "view",
      "type": "function"
    },
    {
      "constant": true,
      "inputs": [],
      "name": "minimumBet",
      "outputs": [
        {
          "name": "",
          "type": "uint256"
        }
      ],
      "payable": false,
      "stateMutability": "view",
      "type": "function"
    },
    {
      "constant": true,
      "inputs": [],
      "name": "maxAmountOfBets",
      "outputs": [
        {
          "name": "",
          "type": "uint256"
        }
      ],
      "payable": false,
      "stateMutability": "view",
      "type": "function"
    },
    {
      "constant": true,
      "inputs": [],
      "name": "randomNum",
      "outputs": [
        {
          "name": "",
          "type": "uint256"
        }
      ],
      "payable": false,
      "stateMutability": "view",
      "type": "function"
    },
    {
      "constant": true,
      "inputs": [],
      "name": "totalBet",
      "outputs": [
        {
          "name": "",
          "type": "uint256"
        }
      ],
      "payable": false,
      "stateMutability": "view",
      "type": "function"
    },
    {
      "inputs": [
        {
          "name": "_minimumBet",
          "type": "uint256"
        }
      ],
      "payable": false,
      "stateMutability": "nonpayable",
      "type": "constructor"
    },
    {
      "payable": true,
      "stateMutability": "payable",
      "type": "fallback"
    },
    {
      "constant": false,
      "inputs": [
        {
          "name": "number",
          "type": "uint256"
        },
        {
          "name": "color",
          "type": "string"
        }
      ],
      "name": "bet",
      "outputs": [],
      "payable": true,
      "stateMutability": "payable",
      "type": "function"
    },
    {
      "constant": false,
      "inputs": [
        {
          "name": "playerAddr",
          "type": "address"
        }
      ],
      "name": "checkPlayerExists",
      "outputs": [
        {
          "name": "",
          "type": "bool"
        }
      ],
      "payable": false,
      "stateMutability": "nonpayable",
      "type": "function"
    },
    {
      "constant": false,
      "inputs": [],
      "name": "generateNumberWinner",
      "outputs": [],
      "payable": false,
      "stateMutability": "nonpayable",
      "type": "function"
    },
    {
      "constant": false,
      "inputs": [],
      "name": "kill",
      "outputs": [],
      "payable": false,
      "stateMutability": "nonpayable",
      "type": "function"
    }
  ],
  "bytecode": "0x6060604052600580556080604051908101604052806040805190810160405280600181526020017f410000000000000000000000000000000000000000000000000000000000000081525081526020016040805190810160405280600181526020017f4b0000000000000000000000000000000000000000000000000000000000000081525081526020016040805190810160405280600181526020017f510000000000000000000000000000000000000000000000000000000000000081525081526020016040805190810160405280600181526020017f440000000000000000000000000000000000000000000000000000000000000081525081525060079060046200011092919062000194565b5034156200011d57600080fd5b604051602080620011f883398101604052808051906020019091905050336000806101000a81548173ffffffffffffffffffffffffffffffffffffffff021916908373ffffffffffffffffffffffffffffffffffffffff1602179055506000811415156200018d57806001819055505b5062000327565b828054828255906000526020600020908101928215620001e8579160200282015b82811115620001e7578251829080519060200190620001d6929190620001fb565b5091602001919060010190620001b5565b5b509050620001f7919062000282565b5090565b828054600181600116156101000203166002900490600052602060002090601f016020900481019282601f106200023e57805160ff19168380011785556200026f565b828001600101855582156200026f579182015b828111156200026e57825182559160200191906001019062000251565b5b5090506200027e9190620002b3565b5090565b620002b091905b80821115620002ac5760008181620002a29190620002db565b5060010162000289565b5090565b90565b620002d891905b80821115620002d4576000816000905550600101620002ba565b5090565b90565b50805460018160011615610100020316600290046000825580601f1062000303575062000324565b601f016020900490600052602060002090810190620003239190620002b3565b5b50565b610ec180620003376000396000f300606060405260043610610099576000357c0100000000000000000000000000000000000000000000000000000000900463ffffffff1680630a50e3611461009b5780632ca8c6d3146100b05780634081d916146100d957806341c0e1b51461012a578063915eb32f1461013f578063c38a8afd1461019a578063e08a96cd146101c3578063f630aa65146101ec578063fe5e185314610215575b005b34156100a657600080fd5b6100ae61023e565b005b34156100bb57600080fd5b6100c3610358565b6040518082815260200191505060405180910390f35b34156100e457600080fd5b610110600480803573ffffffffffffffffffffffffffffffffffffffff1690602001909190505061035e565b604051808215151515815260200191505060405180910390f35b341561013557600080fd5b61013d610402565b005b610198600480803590602001909190803590602001908201803590602001908080601f01602080910402602001604051908101604052809392919081815260200183838082843782019150505050505091905050610497565b005b34156101a557600080fd5b6101ad6108e2565b6040518082815260200191505060405180910390f35b34156101ce57600080fd5b6101d66108e8565b6040518082815260200191505060405180910390f35b34156101f757600080fd5b6101ff6108ee565b6040518082815260200191505060405180910390f35b341561022057600080fd5b6102286108f4565b6040518082815260200191505060405180910390f35b6000806004600a4281151561024f57fe5b0681151561025957fe5b0660048190555060044381151561026c57fe5b0691506000600454141561028257600480819055505b600082141561029057600491505b6007600183038154811015156102a257fe5b90600052602060002090019050610354600454828054600181600116156101000203166002900480601f01602080910402602001604051908101604052809291908181526020018280546001816001161561010002031660029004801561034a5780601f1061031f5761010080835404028352916020019161034a565b820191906000526020600020905b81548152906001019060200180831161032d57829003601f168201915b50505050506108fa565b5050565b60035481565b600080600090505b6006805490508110156103f7578273ffffffffffffffffffffffffffffffffffffffff1660068281548110151561039957fe5b906000526020600020900160009054906101000a900473ffffffffffffffffffffffffffffffffffffffff1673ffffffffffffffffffffffffffffffffffffffff1614156103ea57600191506103fc565b8080600101915050610366565b600091505b50919050565b6000809054906101000a900473ffffffffffffffffffffffffffffffffffffffff1673ffffffffffffffffffffffffffffffffffffffff163373ffffffffffffffffffffffffffffffffffffffff1614151561045d57600080fd5b6000809054906101000a900473ffffffffffffffffffffffffffffffffffffffff1673ffffffffffffffffffffffffffffffffffffffff16ff5b600015156104a43361035e565b15151415156104af57fe5b600182101580156104c1575060048211155b15156104c957fe5b60405180807f41000000000000000000000000000000000000000000000000000000000000008152506001019050604051809103902060001916816040518082805190602001908083835b6020831015156105395780518252602082019150602081019050602083039250610514565b6001836020036101000a0380198251168184511680821785525050505050509050019150506040518091039020600019161480610614575060405180807f4b000000000000000000000000000000000000000000000000000000000000008152506001019050604051809103902060001916816040518082805190602001908083835b6020831015156105e157805182526020820191506020810190506020830392506105bc565b6001836020036101000a038019825116818451168082178552505050505050905001915050604051809103902060001916145b806106bd575060405180807f51000000000000000000000000000000000000000000000000000000000000008152506001019050604051809103902060001916816040518082805190602001908083835b60208310151561068a5780518252602082019150602081019050602083039250610665565b6001836020036101000a038019825116818451168082178552505050505050905001915050604051809103902060001916145b80610766575060405180807f44000000000000000000000000000000000000000000000000000000000000008152506001019050604051809103902060001916816040518082805190602001908083835b602083101515610733578051825260208201915060208101905060208303925061070e565b6001836020036101000a038019825116818451168082178552505050505050905001915050604051809103902060001916145b151561076e57fe5b600154341015151561077c57fe5b34600860003373ffffffffffffffffffffffffffffffffffffffff1673ffffffffffffffffffffffffffffffffffffffff16815260200190815260200160002060000181905550604080519081016040528083815260200182815250600860003373ffffffffffffffffffffffffffffffffffffffff1673ffffffffffffffffffffffffffffffffffffffff168152602001908152602001600020600101600082015181600001556020820151816001019080519060200190610840929190610d11565b509050506001600360008282540192505081905550600680548060010182816108699190610d91565b9160005260206000209001600033909190916101000a81548173ffffffffffffffffffffffffffffffffffffffff021916908373ffffffffffffffffffffffffffffffffffffffff16021790555050346002600082825401925050819055506005546003541015156108de576108dd61023e565b5b5050565b60015481565b60055481565b60045481565b60025481565b610902610dbd565b60008060008060008060009550600094505b600680549050851015610b945760068581548110151561093057fe5b906000526020600020900160009054906101000a900473ffffffffffffffffffffffffffffffffffffffff16935088600860008673ffffffffffffffffffffffffffffffffffffffff1673ffffffffffffffffffffffffffffffffffffffff16815260200190815260200160002060010160000154148015610ac75750876040518082805190602001908083835b6020831015156109e357805182526020820191506020810190506020830392506109be565b6001836020036101000a038019825116818451168082178552505050505050905001915050604051809103902060001916600860008673ffffffffffffffffffffffffffffffffffffffff1673ffffffffffffffffffffffffffffffffffffffff1681526020019081526020016000206001016001016040518082805460018160011615610100020316600290048015610ab45780601f10610a92576101008083540402835291820191610ab4565b820191906000526020600020905b815481529060010190602001808311610aa0575b5050915050604051809103902060001916145b92508215610b1e57838787603281101515610ade57fe5b602002019073ffffffffffffffffffffffffffffffffffffffff16908173ffffffffffffffffffffffffffffffffffffffff168152505085806001019650505b600860008573ffffffffffffffffffffffffffffffffffffffff1673ffffffffffffffffffffffffffffffffffffffff16815260200190815260200160002060008082016000905560018201600080820160009055600182016000610b839190610dfc565b505050508480600101955050610914565b6000600681610ba39190610e44565b506032600254811515610bb257fe5b0491506000861415610c26576000809054906101000a900473ffffffffffffffffffffffffffffffffffffffff1673ffffffffffffffffffffffffffffffffffffffff166108fc6002549081150290604051600060405180830381858888f193505050501515610c2157600080fd5b610cdc565b600090505b85811015610cdb57600073ffffffffffffffffffffffffffffffffffffffff168782603281101515610c5957fe5b602002015173ffffffffffffffffffffffffffffffffffffffff16141515610cce578681603281101515610c8957fe5b602002015173ffffffffffffffffffffffffffffffffffffffff166108fc839081150290604051600060405180830381858888f193505050501515610ccd57600080fd5b5b8080600101915050610c2b565b5b610ce4610cef565b505050505050505050565b6000600681610cfe9190610e44565b5060006002819055506000600381905550565b828054600181600116156101000203166002900490600052602060002090601f016020900481019282601f10610d5257805160ff1916838001178555610d80565b82800160010185558215610d80579182015b82811115610d7f578251825591602001919060010190610d64565b5b509050610d8d9190610e70565b5090565b815481835581811511610db857818360005260206000209182019101610db79190610e70565b5b505050565b610640604051908101604052806032905b600073ffffffffffffffffffffffffffffffffffffffff16815260200190600190039081610dce5790505090565b50805460018160011615610100020316600290046000825580601f10610e225750610e41565b601f016020900490600052602060002090810190610e409190610e70565b5b50565b815481835581811511610e6b57818360005260206000209182019101610e6a9190610e70565b5b505050565b610e9291905b80821115610e8e576000816000905550600101610e76565b5090565b905600a165627a7a72305820c4b9bd406312ac9fd8d9008b495bb739c1dca641ad0e4186bdedfa81f1d10bf70029",
  "source": "pragma solidity ^0.4.18;\r\n\r\ncontract Casino {\r\n    address private owner;\r\n    uint public minimumBet;\r\n    uint public  totalBet;\r\n    uint public  numberOfBets;\r\n    uint public randomNum;\r\n    uint public  maxAmountOfBets = 5;\r\n    address[] players;\r\n    string[] colors = [\"A\", \"K\", \"Q\", \"D\"];\r\n    \r\n    struct Card {\r\n        uint number;\r\n        string color;\r\n    }\r\n    \r\n    struct Player {\r\n       uint amountBet;\r\n       Card bet;\r\n    }\r\n    \r\n    mapping(address => Player) playerInfo;\r\n    \r\n    function Casino(uint256 _minimumBet) public {\r\n        owner = msg.sender;\r\n        \r\n        if(_minimumBet != 0) {\r\n            minimumBet = _minimumBet;\r\n        }\r\n    }\r\n    \r\n    modifier IsOwner() {\r\n        require(msg.sender == owner);\r\n        _;\r\n    }\r\n    \r\n    function bet(uint number, string color) payable public {\r\n        assert(checkPlayerExists(msg.sender) == false);\r\n        assert(number >=1 && number <= 4);\r\n        assert(keccak256(color) == keccak256(\"A\") || keccak256(color) == keccak256(\"K\") || keccak256(color) == keccak256(\"Q\") || keccak256(color) == keccak256(\"D\"));\r\n        assert(msg.value >= minimumBet);\r\n        \r\n        playerInfo[msg.sender].amountBet = msg.value;\r\n        playerInfo[msg.sender].bet = Card(number, color);\r\n        numberOfBets += 1;\r\n        players.push(msg.sender);\r\n        totalBet += msg.value;\r\n        if(numberOfBets >= maxAmountOfBets) generateNumberWinner();\r\n    }\r\n    \r\n    function checkPlayerExists(address playerAddr) public returns(bool) {\r\n        for(uint i = 0; i < players.length; i++) {\r\n            if(players[i] == playerAddr) {\r\n                return true;\r\n            }\r\n        }\r\n        \r\n        return false;\r\n    }\r\n    \r\n    function generateNumberWinner() public {\r\n        randomNum = block.timestamp % 10 % 4;\r\n        uint randomColorNumber = block.number % 4;\r\n        if(randomNum == 0) {\r\n            randomNum = 4;\r\n        }\r\n        \r\n        if(randomColorNumber == 0) {\r\n            randomColorNumber = 4;\r\n        }\r\n        \r\n        string colorWinner = colors[randomColorNumber - 1];\r\n        \r\n        distibutePrice(randomNum, colorWinner);\r\n    }\r\n    \r\n    function distibutePrice(uint number, string color) private { \r\n        address[50] memory winners;\r\n        uint count = 0;\r\n        \r\n        for(uint i = 0; i < players.length; i++){\r\n            address playerAddress = players[i];\r\n            bool winner = playerInfo[playerAddress].bet.number == number && keccak256(playerInfo[playerAddress].bet.color) == keccak256(color);\r\n            \r\n            if(winner) {\r\n                winners[count] = playerAddress;\r\n                count++;\r\n            }\r\n            \r\n            delete playerInfo[playerAddress];\r\n        }\r\n        \r\n        players.length = 0;\r\n        \r\n        uint256 winnerEtherAmount = totalBet / winners.length;\r\n        \r\n        if(count == 0) {\r\n            owner.transfer(totalBet);\r\n        }\r\n        else {\r\n            for(uint j = 0; j < count; j++){\r\n                if(winners[j] != address(0)) {\r\n                    winners[j].transfer(winnerEtherAmount);\r\n                }\r\n            }\r\n        }\r\n        \r\n        resetData();\r\n    }\r\n    \r\n    function resetData() private {\r\n       players.length = 0; \r\n       totalBet = 0;\r\n       numberOfBets = 0;\r\n    }\r\n    \r\n    function kill() IsOwner public {\r\n        selfdestruct(owner);\r\n    }\r\n    \r\n    function() payable public {}\r\n}",
  "sourcePath": "E:\\SofUni\\Blockchain\\casino\\contracts\\Casino.sol",
  "compiler": {
    "name": "solc",
    "version": "0.4.19+commit.c4cbbb05.Emscripten.clang"
  },
  "schemaVersion": "2.0.0",
  "updatedAt": "2018-03-01T23:21:07.449Z"
}